:020000040800F2
:100000000040002035080008850800088508000821
:100010008508000885080008850800080000000021
:10002000000000000000000000000000850800083B
:100030008508000800000000850800085F1F000810
:10004000850800088508000885080008850800085C
:100050008508000885080008E91F0008EF1F000850
:1000600085080008F51F0008FB1F00088508000828
:10007000850800088508000885080008850800082C
:10008000850800088508000885080008850800081C
:100090008508000885080008850800080120000878
:1000A000AD06000861060008C106000885080008C2
:1000B0008506000800000000000000008508000818
:1000C0008508000885080008850800080000000071
:1000D00085080008152900082D2900084529000871
:1000E000172000080523000885080008000000000C
:1000F0000000000000000000000000000000000000
:10010000000000000000000000000000850800085A
:100110000000000000000000990600080000000038
:1001200000000000000000000000000000000000CF
:1001300000000000000000000000000000000000BF
:100140008508000885080008000000000000000085
:10015000000000000000000000000000000000009F
:10016000850800088508000885080008850800083B
:1001700085080008000000000000000000000000EA
:080180000000000085080008E2
:10018800034613F8012B002AFBD1181A01387047CF
:1001980010B5054C237833B9044B13B10448AFF3B9
:1001A80000800123237010BDAC0000200000000077
:1001B800742E000808B5034B1BB103490348AFF37D
:1001C800008008BD00000000B0000020742E000868
:1001D80010B5102390B001220224CDE90A23002192
:1001E8004FF4601306A8CDE90E1306940D9400F0A1
:1001F8003DFD00B1FEE70F23CDE901344FF48063E4
:10020800CDE904300390214601A800F0EDFF00B1CC
:10021800FEE710B010BDB0F8A230013303F03F0381
:10022800A0F8A230B0F8A230B0F89E009BB2984275
:100238004FF0FF3018BF00207047B0F83431B0F8E5
:100248003001181A00F03F007047B0F83431B0F8A8
:1002580030219BB293421ABFD0F82831985C4FF0F6
:10026800FF30704713B50DF10701044602F086FA16
:1002780098B9B4F8A030B4F89C20013303F03F03D8
:1002880093420AD0B4F8A020D4F894109DF807003F
:1002980092B29BB28854A4F8A03002B010BD0000FE
:1002A800012370B50374B0F92231013304460E46B8
:1002B80000F1940508D190F838312BB1002380F86B
:1002C8003831284602F0C4FAB4F832114B1C03F056
:1002D8003F03B4F8362192B29342FAD0D4F82C21D5
:1002E80028465654A4F8323102F036FA18B90349B0
:1002F800284602F087FA012070BD00BF1F020008DF
:10030800037C33B1B0F83221B0F836319BB29A424F
:10031800FAD1704700F11103914208BF4FF0FF3145
:10032800A0F82021C0F8283100F151020023A0F8DC
:100338003431C0E94B23A0F82211A0F836317047B8
:1003480070B54FF47A7316460022C0E90123164BA4
:1003580003604FF6FF73A0F82231144B984204460D
:100368000D4613D1124B1A88A0F822215B88A0F8F9
:1003780020311EB14FF6FF73A4F822312046B4F99C
:100388002021B4F92211FFF7C5FF70BD094928469D
:1003980001F088FF0849A4F82201284601F082FFED
:1003A800A4F82001E5E700BFDC310008C800002000
:1003B800FC300008DC2F000854300008B0F9223166
:1003C800013310B504460ED103685B69984794F869
:1003D800383143B9012384F8383104F19400BDE879
:1003E800104002F045BA10BD02F00703023BDBB231
:1003F800042B2DE9F7430E46C0F83C1198BF1F495E
:1004080080F8392198BFCC5C02F0300388BF002403
:10041800302B054624D101344FF4C06712F0080F81
:10042800A4F1070314BF4FF400594FF00009022B41
:100438001DD8134A52F82340CDF8009005F19408CE
:1004480031463B462246404602F070F92846FFF7FF
:10045800B5FF0C49404603B0BDE8F04302F0AAB925
:1004680012F020071CBF01344FF48067D6E7064816
:100478004FF4C17101F048FFDEE700BFC03100084A
:10048800C83100086D0200086431000810B5044640
:10049800FFF794FFB4F83421B4F8303192B29A429D
:1004A8001FBFD4F82821D05C013303F03F0314BFE9
:1004B800A4F830314FF0FF3010BD00000249034866
:1004C8000022FFF73DBF00BF00440040C8000020E5
:1004D80010B5044620B9074840F2CB3101F014FFAB
:1004E800204601F047FF0068436D13B1BDE8104096
:1004F800184710BDFC31000870B5054620B91148F1
:1005080040F2DE3101F000FF2B7F013B072B17D8AB
:10051800DFE803F0140416101616161202242846F3
:1005280001F028FF006800EB8404636D43B1BDE867
:10053800704018470324F2E70424F0E70124EEE7AB
:1005480070BD00BFFC310008114A9042034615D027
:10055800B0F1804F14D0A2F58E32904212D002F53D
:100568009832904210D002F5806290420ED04FF639
:10057800FF70084A934208BF052070470020F8E73B
:100588000120F6E7022070470320704704207047D7
:10059800002C01400048014073B5044608460D464A
:1005A800FFF7D2FF4FF6FF739842064603D11B4868
:1005B800322101F0A9FE1A4BE56004F1080200257A
:1005C80043F826200E2304F10C00C4E91335C4E9CE
:1005D8000B55C4E90D55C4E90F5584F828506564D6
:1005E80084F8485084F84950A460019001F0C4FE92
:1005F8004FF6FF73C4E91555C4E91755C4E91955F1
:10060800C4E90055C4E90553C4E9075501982561B3
:10061800656200F0D9FF204602B070BDFC310008C9
:1006280008020020014638B5044651F80C0FFFF7C0
:100638008BFF0546084601F003FF034B002243F8F1
:100648002520204638BD00BF08020020FFF754BF10
:10065800FFF752BFFFF73CBF10B5074C206810B139
:10066800043000F0BEFE206920B1BDE8104004301F
:1006780000F0B7BE10BD00BF08020020034B586849
:1006880010B1043000F0ADBE704700BF0802002072
:10069800034B986810B1043000F0A3BE704700BF48
:1006A80008020020034BD86810B1043000F099BE4E
:1006B800704700BF08020020034B586910B104308E
:1006C80000F08FBE704700BF08020020F8B505464D
:1006D8000E4617460024BC4207D02B68315D1B68C4
:1006E8002846984708B10134F5E72046F8BD13B508
:1006F8000446084659B10191FFF742FD2368019964
:100708005B680246204602B0BDE81040184702B0B8
:1007180010BD08B5FFF7EBFF08BD000008B502499A
:10072800FFF7E5FF08BD00BF5732000838B505469A
:10073800FFF7DDFF04462846FFF7F0FF204438BDE9
:1007480010B5044600F060F9E06023682046DB68D5
:100758009847002808DA00F057F9E368C01AA36838
:100768009842F2D34FF0FF3010BDF8B506460D465B
:1007780017460024BC4207D03046FFF7E1FF031EAE
:1007880002DB2B550134F5E72046F8BD2DE9F04191
:100798000746884616461D4673B100243846FFF7BB
:1007A800CFFF031E05DB434503D033550134A54273
:1007B800F4D12046BDE8F0811C46FAE7836810B5FD
:1007C800044613B1032201469847204610BD000095
:1007D80008B5044B2BB10448FFF72FFD08B1AFF360
:1007E800008008BD00000000C800002001F0D8BB50
:1007F8007047704708B5032000F060F9BDE808406D
:10080800FFF7F4BF08B5FFF7F4FF02F007FA044C4E
:1008180002F090F9002CFBD0FFF7DAFFF8E700BFF1
:10082800D907000802F04ABA02F050BADFF834D00B
:10083800002103E00C4B5B58435004310B480C4B30
:1008480042189A42F6D30B4A02E0002342F8043BCE
:10085800094B9A42F9D301F059FD02F00BFAFFF760
:10086800D1FFFEE700400020C4340008000000204B
:10087800AC000020AC000020C4030020FEE700000C
:1008880033282DE9F0410E4627D82A4B33F910407A
:10089800621C4CD0284DC4F3031704F00F0855F818
:1008A800273023FA08F3DB0710D52449204601F046
:1008B80022FCE0B1204601F003FB012303FA08F211
:1008C80055F8273023EA020345F82730052E28D8A3
:1008D800DFE806F017231D1F212535380B2826D8F9
:1008E800174B53F82020134B33F91240D0E7154922
:1008F800204601F000FC0028DFD0204601F0F8FA7D
:10090800DBE700212046BDE8F04101F003BC1021DF
:10091800F8E72021F6E70321F4E70121F2E70921AE
:10092800F0E7BDE8F0410848492101F0EDBCBDE819
:10093800F08100BFFC300008200200208C2E000847
:10094800CC300008A42E00085A320008332814D8E6
:10095800114B33F91030C3F30312042A98BF0F4820
:1009680003F00F0398BF50F822200D4888BF0022DB
:1009780050F8233071B19361704735380B289DBF0B
:10098800084B53F82020044B4FF0FF3398BF33F93E
:100998001230E0E793627047FC300008080000203E
:1009A8003C330008CC300008332814D8124B33F9F4
:1009B8001030C3F30312042A1AD8104903F00F03A6
:1009C80051F822200E49126951F8233093430CBF85
:1009D80001200020704735380B289DBF094B53F87C
:1009E8002020054B4FF0FF3398BF33F91230E0E772
:1009F80000231B69FFDE00BFFC3000080800002050
:100A08003C330008CC30000801F0A2BA38B50446DF
:100A180048B101F09DFA0546FFF7EAFE01F098FAA1
:100A2800431BA342F8D338BD7047000038B50E4ABF
:100A38000E4B054618784FF47A73B3FBF0F3106841
:100A4800B0FBF3F000F0A0F8044658B90F2D09D810
:100A5800024629464FF0FF3000F042F8044B20468A
:100A68001D6038BD0120FCE71C00002000000020AC
:100A780004000020074A08B5136843F01003136008
:100A8800032000F01BF80020FFF7D0FFFFF7CCFF92
:100A9800002008BD00200240034A044B11681B785F
:100AA8000B441360704700BFB00300200000002013
:100AB800014B1868704700BFB00300200749CA6897
:100AC80022F4E0620302120403F4E063120C1343FD
:100AD80043F0BF6343F40033CB60704700ED00E0A0
:100AE800164B30B5DC68C4F30224C4F10705231D96
:100AF800042D28BF0425062B4FF0FF338CBF033C81
:100B0800002403FA05F521EA0501A34022EA0302BD
:100B1800A140002841EA0203ACBF00F16040084A46
:100B28004FEA0313B8BF00F00F00DBB2AABF00F50D
:100B38006140135480F8003330BD00BF00ED00E081
:100B480014ED00E0002808DB4209012300F01F0033
:100B580003FA00F0014B43F82200704700E100E07F
:100B680000280DDB4309012200F01F0002FA00F003
:100B78002033044A42F82300BFF34F8FBFF36F8F2F
:100B8800704700BF00E100E00138B0F1807F0AD271
:100B9800064B074A5860F02182F8231000200722EC
:100BA80098601A6070470120704700BF10E000E0AD
:100BB80000ED00E0002809DB4309012200F01F00D6
:100BC80002FA00F06033024A42F82300704700BF7F
:100BD80000E100E0704708B5FFF7FCFF08BD10B55D
:100BE800044640B10223037101F054F9002020614A
:100BF8006071207110BD0120FCE710B50468012266
:100C0800236802FA01F123EA01032360027100203C
:100C180010BD10B590F82120022A03D00422826367
:100C2800012010BD0268436B116821F00E011160AC
:100C3800116821F001011160D0E90F140122A240CE
:100C48004A604FF48072028413B198470020E8E7A5
:100C58001846E6E7044A5169014208B502D05061D6
:100C680001F0A8F908BD00BF000401402DE9F743D1
:100C78000546002835D00368DA0711D42B689B078E
:100C880000F188802B681C0700F1FB802B6858074F
:100C980000F14781E869002840F0D68100204BE048
:100CA800BD4C636803F00C03042B07D0636803F0A2
:100CB8000C03082B17D16368DF0314D54FF40033F6
:100CC80093FAA3F2216893FAA3F3B3FA83F303F038
:100CD8001F03012202FA03F30B42CFD06B68002BEB
:100CE800CCD1012028E06A68B2F5803F27D123687B
:100CF80043F480332360E36AA96823F00F030B43AE
:100D0800E36262B3FFF7D4FE4FF4003706464FF0B4
:100D1800010897FAA7F3226897FAA7F3B3FA83F3BF
:100D280003F01F0308FA03F31342A7D1FFF7C0FE2D
:100D3800831B642BEDD9032003B0BDE8F08323683F
:100D480032B923F480332360236823F48023D1E766
:100D5800B2F5A02FF5D143F480232360C7E7FFF74E
:100D6800A7FE4FF4003706464FF0010897FAA7F39D
:100D7800226897FAA7F3B3FA83F303F01F0308FA7C
:100D880003F313423FF47AAFFFF792FE831B642B01
:100D9800ECD9D0E7804C636813F00C0F07D0636878
:100DA80003F00C03082B21D16368DE031ED4022351
:100DB80093FAA3F2216893FAA3F3B3FA83F303F047
:100DC8001F03012202FA03F30B4202D02B6993425C
:100DD80087D121686B6921F0F801F82292FAA2F212
:100DE800B2FA82F293400B4323604BE72A6901234E
:100DF80012B393FAA3F3B3FA83F303F1845303F51D
:100E080084139B0001261E60FFF752FE4FF0020874
:100E1800074698FAA8F3226898FAA8F3B3FA83F376
:100E280003F01F0306FA03F31342D2D1FFF740FE83
:100E3800C31B022BEDD97EE793FAA3F3B3FA83F32E
:100E480003F1845303F584139B0000221A60FFF713
:100E58002FFE022706464FF0010897FAA7F32268EB
:100E680097FAA7F3B3FA83F303F01F0308FA03F31F
:100E780013423FF407AFFFF71BFE831B022BECD98D
:100E880059E7A969444C454A012321B393FAA3F3CE
:100E9800B3FA83F313449B0001261E60FFF708FE94
:100EA8000227804697FAA7F397FAA7F397FAA7F3CA
:100EB800626A97FAA7F3B3FA83F303F01F0306FAFB
:100EC80003F313427FF4E2AEFFF7F2FDA0EB080351
:100ED800022BE7D92FE793FAA3F3B3FA83F313446A
:100EE8009B0000221A60FFF7E3FD022607464FF039
:100EF800010896FAA6F396FAA6F396FAA6F3626A9A
:100F080096FAA6F3B3FA83F303F01F0308FA03F380
:100F180013423FF4BBAEFFF7CBFDC31B022BE8D94E
:100F280009E71D4CE369D90034D4E36943F08053E1
:100F3800E361E36903F080530193019B0127184E95
:100F48003368DA052ED5EB68012B3CD1236A43F0D0
:100F580001032362FFF7ACFD02268046B14696FAEC
:100F6800A6F396FAA6F3002B00F00281216A99FAFB
:100F7800A9F3B3FA83F303F01F03012202FA03F380
:100F88000B4258D0002F3FF485AEE36923F080531D
:100F9800E3617FE60027D2E700100240208190102D
:100FA80000700040336843F480733360FFF780FDBE
:100FB80080463368DB05C6D4FFF77AFDA0EB08004E
:100FC8006428F6D9B7E643BB236A23F001032362FA
:100FD800236A23F004032362FFF76AFD0226804692
:100FE800B14696FAA6F396FAA6F3002B00F0C48051
:100FF800216A99FAA9F3B3FA83F303F01F030122D4
:1010080002FA03F30B42BDD0FFF752FD41F28833D9
:10101800A0EB08009842E4D98DE6052B236A03D19A
:1010280043F00403236291E723F001032362236A58
:1010380023F004038DE7FFF73BFD41F28833A0EB73
:10104800080098428BD976E64D4B5A6802F00C029C
:10105800082A1C467BD002284FF0807352D193FA9D
:10106800A3F3B3FA83F303F1845303F584139B00CA
:1010780000221A60FFF71CFD4FF0007706464FF07C
:10108800010897FAA7F3226897FAA7F3B3FA83F34C
:1010980003F01F0308FA03F313422DD1D5E908130F
:1010A80062680B4322F47412134363604FF0807339
:1010B80093FAA3F3B3FA83F303F1845303F5841388
:1010C8009B0001251D60FFF7F3FC4FF000770646F3
:1010D80097FAA7F3226897FAA7F3B3FA83F303F012
:1010E8001F0305FA03F313427FF4D8ADFFF7E0FCC2
:1010F800831B022BECD91EE6FFF7DAFC831B022BBD
:10110800BFD918E693FAA3F3B3FA83F303F1845330
:1011180003F584139B0000221A60FFF7C9FC4FF007
:1011280000760546012796FAA6F3226896FAA6F3F2
:10113800B3FA83F303F01F0307FA03F313423FF4F0
:10114800ADADFFF7B5FC431B022BECD9F3E5012845
:101158003FF4F2AD5B682A6A03F4803191427FF470
:10116800C0AD6A6A03F4701393423FF497ADB8E5D3
:1011780096FAA6F3616AFAE696FAA6F3616A38E780
:1011880000100240134B596801F00C02082A1A4655
:101198001ED101F470104FF4701393FAA3F3B3FA4D
:1011A80083F320FA03F30C48C05CD36A0F2203F0E0
:1011B8000F0392FAA2F2B2FA82F2D340074AD25C43
:1011C800CB034ABF064B074BB3FBF2F358437047B8
:1011D8000348704700100240B4320008C4320008C7
:1011E80000127A0000093D002DE9F0410D46044641
:1011F80010B90120BDE8F081464A136803F00703DF
:101208008B422ED32268910736D4D2073CD4414A68
:10121800136803F00703AB4268D822683E4D12F00A
:10122800040F6FD1130706D56B68226923F4605346
:1012380043EAC2036B60FFF7A5FF6B68F02203F077
:10124800F00392FAA2F2B2FA82F2D340334AD35CA4
:10125800D840334B1860334B1868FFF7E7FB002082
:10126800C8E7136823F007030B431360136803F000
:1012780007038B42BDD1C5E72749A0684B6823F017
:10128800F00303434B60C0E76268234E012A27D16D
:101298004FF4003393FAA3F1306893FAA3F3B3FA47
:1012A80083F303F01F03012101FA03F30342A0D0E3
:1012B800736823F003031A437260FFF7F9FB41F2E6
:1012C800883807467368626803F00C03B3EB820F33
:1012D8009DD0FFF7EDFBC01B4045F3D9032089E7FC
:1012E800022A0CBF4FF000730223D3E7136823F0E0
:1012F80007032B431360136803F00703AB427FF423
:1013080078AF8AE76B68E16823F4E0630B436B60AE
:1013180088E700BF00200240001002407C3300082C
:101328001C00002004000020084B1868084B5B686C
:101338004FF4E06203F4E06392FAA2F2B2FA82F2A6
:10134800D340044AD35CD840704700BF1C0000203B
:10135800001002408C330008084B1868084B5B6883
:101368004FF4605203F4605392FAA2F2B2FA82F296
:10137800D340044AD35CD840704700BF1C0000200B
:10138800001002408C33000803689A68D20410B534
:1013980004460AD5DB68D90507D500F0A3FF226803
:1013A800D368DBB263F4C073D36023689A6892048D
:1013B8000BD5DB689B0508D5204600F00FF822689E
:1013C800D368DBB263F42073D360034B4FF400326D
:1013D8005A610123637710BD0004014070477047CC
:1013E800704703681A69910710B504460FD5DA6883
:1013F80092070CD56FF002021A61012202779B69ED
:10140800990700F08580FFF721F9002323772368E7
:101418001A69520710D5DA6850070DD56FF0040223
:101428001A61022222779B6913F4407F204675D007
:10143800FFF70CF90023237723681A6911070FD5E2
:10144800DA6812070CD56FF008021A6104222277B5
:10145800DB699B07204667D0FFF7F8F8002323775E
:1014680023681A69D00610D5DA68D1060DD56FF051
:1014780010021A6108222277DB6913F4407F2046A4
:1014880058D0FFF7E3F80023237723681A69D207B7
:1014980008D5DA68D00705D56FF001021A61204631
:1014A800FFF7D8F823681A69110608D5DA68120612
:1014B80005D56FF080021A61204600F0A0F8236875
:1014C8001A69D00508D5DA68110605D56FF4807257
:1014D8001A61204600F094F823681A69520608D564
:1014E800DA68500605D56FF040021A612046FFF70A
:1014F80077FF23681A69910622D5DA6892061FD504
:101508006FF0200220461A61BDE8104000F076B85E
:10151800FFF79EF82046FFF762FF76E7FFF798F897
:101528002046FFF75CFF85E7FFF792F82046FFF7B4
:1015380056FF93E7FFF78CF82046FFF750FFA2E726
:1015480010BD00001E4A0368904210B502D0B0F1E9
:10155800804F09D14C6823F07003904243EA04039A
:101568000DD0B0F1804F0AD0164A904207D002F54C
:101578008062904203D002F58062904203D1CA682B
:1015880023F4407313434A6923F080031343036031
:101598008B68C3620B688362094B98420BD003F5D2
:1015A800A053984207D003F58063984203D003F50F
:1015B8008063984201D10B6903630123436110BD25
:1015C800002C01400040014010B50446A0B190F83D
:1015D8003D3003F0FF021BB980F83C2000F0D4FF37
:1015E8000223206884F83D30211DFFF7ABFF01235B
:1015F80084F83D30002010BD0120FCE7704770479B
:10160800704703681A6822F490721A609A6822F088
:1016180001029A6020238367002303667047436FA3
:10162800212B18D1B0F85220036892B242B91A6837
:1016380022F080021A601A6842F040021A6070476D
:10164800C26C12F8011B1985B0F85230C264013B14
:101658009BB2A0F852307047436F212B1AD1B0F8D3
:101668005220036892B242B91A6822F080021A60C6
:101678001A6842F040021A607047C26C32F8021BC6
:10168800C1F308011985B0F85230C264013B9BB21E
:10169800A0F8523070477047436F202B27D121B3F1
:1016A8001AB390F87030012B21D00023A0F85220F3
:1016B800C367212343678368C164B3F5805FA0F8DB
:1016C800502010D101690B4B0B4A002908BF134663
:1016D80001684366002380F870300A6842F080028F
:1016E8000A6018467047034BF2E701207047022052
:1016F800704700BF2716000861160008836F202B6B
:1017080010B54CD1002948D0002A46D090F8703046
:10171800012B44D0012380F870308368A0F858204A
:10172800A0F85A20B3F5805F4FF0000241650266C9
:1017380023D10269FAB940F2FF12A0F85C20002216
:10174800C2672222826702689168B3F5805F41F020
:10175800010191601FD10469124B1349002C08BF85
:101768000B460366002380F87030116841F49071CD
:101778001160184610BDFF22DFE723B90269002A6D
:10178800F9D07F22D9E7B3F1805FD6D10269002A68
:10179800F7D03F22D1E7034BE3E70120EAE7022035
:1017A800E8E700BFB51700080D180008816F026848
:1017B800222910B521D1928C90F85C40416D2240CD
:1017C8000A70426D01324265B0F85A20013A92B26D
:1017D800A0F85A20B0F85A2092B26AB901680C6889
:1017E80024F490740C608C6824F001048C6020212F
:1017F8008167026601F04CF810BD936943F0080355
:101808009361F9E7816F0268222910B51FD1948C82
:10181800B0F85C100C40416D21F8024B4165B0F8FE
:101828005A10013989B2A0F85A10B0F85A1089B282
:1018380061B9146824F490741460946824F0010465
:10184800946020228267016601F022F810BD936936
:1018580043F008039361F9E70368DA69196870B51A
:1018680040F60F0632429D68044609D1960670D5A7
:101878008E066ED5036E002B66D0BDE87040184703
:1018880005F0010001F49076064362D0D50707D52C
:10189800CE0505D501251D62E56F45F00105E56713
:1018A800950706D528B102251D62E56F45F00405A8
:1018B800E567560706D528B104251D62E56F45F092
:1018C8000205E567150709D501F02005284305D06D
:1018D80008201862E06F40F00800E067160508D598
:1018E8004D0106D54FF400601862E36F43F0200302
:1018F800E367E36F43B3900605D5890603D5236EE6
:101908000BB1204698472368E56F9B6805F02805CA
:1019180003F040031D43204617D0FFF772FE2368EB
:101928009A6852060DD59A68E06E22F040029A60D5
:1019380038B11A4B4363FFF76CF928B1E06E436B7B
:101948009BE7204600F0BDFF70BD00F0BAFFE567D9
:10195800FAE7D60209D5680207D54FF48012204667
:101968001A62BDE8704000F0F7BF160606D50D06EE
:1019780004D5636E002BE7D020467EE75006E3D5FA
:101988004A06E1D51A6822F040021A6020236367EC
:1019980000236366204600F07FFFD5E7A9190008F9
:1019A80008B5406A0023A0F85A30A0F8523000F079
:1019B80088FF08BD90F87030012B11D024234367AD
:1019C80003681A6822F00C021A601A6842F00802CA
:1019D8001A6020234367002380F870301846704748
:1019E8000220704790F87030012B11D024234367F0
:1019F80003681A6822F00C021A601A6842F004029E
:101A08001A6020234367002380F870301846704717
:101A180002207047426F806F1043704738B5C16924
:101A2800036882681D6804460069024360690243CE
:101A380055480A43284002431A605A68E068256AF4
:101A480022F4405202435A609868A26920F4306038
:101A58002A4302439A604D4A934214D14C4B1B6B64
:101A680003F00303013B022B14D84A4AB1F5004F97
:101A7800D35C58D1082B4BD8DFE803F02136394A1C
:101A8800424A4A4A4500444A934203D002F58062DA
:101A9800934273D1B1F5004F11D0FFF745FC63684D
:101AA80000EB5300B0FBF3F39BB20020A3F110014D
:101AB8004FF6EF72914212D82268D36010E0FFF718
:101AC80033FC63685A0802EB4000B0FBF3F39BB2A7
:101AD8000020A3F110014FF6EF7291421BD90120AB
:101AE8000023C4E9183338BDFFF736FCE9E762681C
:101AF800530803F5740303F51053B3FBF2F3E6E759
:101B0800FFF740FBDDE76268530803F58033F4E72D
:101B180001200023DDE723F00F022168C3F342030D
:101B28001343CB60DCE7082B2BD801A252F823F033
:101B3800A31A00085D1B0008631B00088B1B000824
:101B4800751B00088B1B00088B1B00088B1B0008EB
:101B58007B1B0008FFF700FCA1E76268530803F548
:101B6800F40303F59053B3FBF2F39DE7FFF70AFB89
:101B780095E76268530803F50043F4E7B1F5004FB1
:101B8800C6D00120002391E7F369FFEF0038014038
:101B980000100240D432000800440040436ADA07CB
:101BA80010B506D50168846A4A6822F400322243D7
:101BB8004A609C0706D50168C46A4A6822F48032E4
:101BC80022434A60590706D50168046B4A6822F423
:101BD800802222434A601A0706D50168446B4A6886
:101BE80022F4004222434A60DC0606D50168846B71
:101BF8008A6822F4805222438A60990606D50168D1
:101C0800C46B8A6822F4005222438A605A060FD5B0
:101C18000168046C4A6822F480122243B4F5801FDC
:101C28004A6005D14A68446C22F4C00222434A60E3
:101C38001B0606D50268816C536823F400230B4306
:101C4800536010BD2DE9F041DDF8188004460E46BA
:101C580015461F462268D36936EA03030CBF0123E1
:101C68000023AB4201D000201AE0B8F1FF3FF2D0C8
:101C7800FEF71EFFC01B40452068036802D8B8F174
:101C8800000F0FD123F4D0730360836823F001039E
:101C9800836020236367A367002384F870300320E0
:101CA800BDE8F0815A07D5D5C3691B05D2D54FF4D5
:101CB80000630362036823F4D0730360836823F02E
:101CC8000103836020236367A367E367E4E730B514
:101CD8000446002585B0C567FEF7EAFE226812684B
:101CE8001107034614D422681268520709D56FF009
:101CF8007E4200924FF4800100222046FFF7A2FFA7
:101D080098B920230020636784F87000A3670DE06A
:101D18006FF07E42009203902A464FF4001120464D
:101D2800FFF790FF039B0028DDD0032005B030BDEE
:101D380010B5044640B3436F1BB980F87030FFF705
:101D4800AAFC226824236367136823F00103136045
:101D58002046FFF763FE012816D0636A13B12046B8
:101D6800FFF71CFF23685A6822F490425A609A6869
:101D780022F02A029A601A6842F0010220461A608C
:101D8800BDE81040FFF7A3BF012010BD10B5044601
:101D980060B3436F1BB980F87030FFF77CFC226892
:101DA80024236367136823F0010313602046FFF7B9
:101DB80035FE01281AD0636A13B12046FFF7EEFEFC
:101DC80023685A6822F490425A609A6822F02202E4
:101DD8009A609A6842F008029A601A6842F0010212
:101DE80020461A60BDE81040FFF771BF012010BD02
:101DF80086B0042842D8DFE800F003111D29350019
:101E08001F4B5A6942F400325A615B6903F400338C
:101E18000193019B4FF0904006B07047184B19484A
:101E28005A6942F480225A615B6903F48023029361
:101E3800029BF1E7124B14485A6942F400225A6196
:101E48005B6903F400230393039BE5E70C4B0F48FE
:101E58005A6942F480125A615B6903F4801304934F
:101E6800049BD9E7064B0A485A6942F480025A6132
:101E78005B6903F480030593059BCDE70020CBE75E
:101E8800001002400004004800080048000C004808
:101E9800001400480268094B9A420DD103F5CE336D
:101EA8001A6942F000521A611A6922F000521A6146
:101EB800DA6922F00052DA61704700BF007400400E
:101EC80010B50A4986B0044600F0DAF9019050B11D
:101ED8000649204600F0F8F9002101A8FEF78DFE1A
:101EE80001A8FEF77CFE06B010BD00BF8C2E0008CE
:101EF80073B51549154C064600F0C2F9FEF724FBE8
:101F080054F82030054673B90F49304600F0B8F947
:101F180001906C20FEF786FC01990646FEF73CFB13
:101F280054F825301E6054F825301C684CB1204602
:101F3800FEF778FB6C21204602B0BDE87040FEF742
:101F480073BC02B070BD00BFA42E000808020020B8
:101F5800FEF7AEBD704708B5FEF79EFDFEF73BFEE7
:101F6800FFF7F8FF08BD00000B4BDA68D2015EBF2F
:101F7800DA6842F08072DA60084B00225A601A6808
:101F880042F001021A6000BF00BF00BF5868B0FAF3
:101F980080F04009704700BFF0ED00E0001000E05D
:101FA80008B5FFF7E1FFFEF765FDBDE80840FEF75D
:101FB8000FB900000023012803F1010202D04008F4
:101FC8001346F8E71421DBB24B43044A181D1044AA
:101FD800816811B11A441369184770473402002008
:101FE8000120FEF737BE0220FEF734BE0820FEF7B8
:101FF80031BE1020FEF72EBE38B505242025A8B224
:10200800FEF728FE013C4FEA4505F8D138BD38B542
:1020180006244FF48065A8B2FEF71CFE013C4FEA87
:102028004505F8D138BD0000204B07211975082156
:1020380083F82810092183F83C100A21062283F826
:10204800501017211A7083F86410002283F8781052
:1020580083F88C1083F8A01083F8B4102821DA6074
:102068001A625A639A64DA651A67C3F88420C3F857
:102078009820C3F8AC20C3F8C02083F8C810C3F870
:10208800D42083F8DC10C3F8E82083F8F010C3F8F4
:10209800FC2083F80411C3F8102183F81811C3F841
:1020A800242183F82C11C3F838217047340200200A
:1020B80038B5054CA4F5A075143C201DFEF77EFB31
:1020C800AC42F9D138BD00BF7403002030B5C468F4
:1020D80091FAA1F3B3FA83F303255B0005FA03F33E
:1020E80024EA030391FAA1F1B1FA81F149008A4087
:1020F8001343C36030BD431C04D00C3131F90C3C90
:102108005A1C01D100207047834201F10C01F5D11E
:102118000120704700F00F02474B2DE9F041C0F352
:1021280003141FFA80F8013053F822500E4601F0CC
:10213800070703D14148472100F0E6F82046FFF79A
:1021480057FE8368044695FAA5F2B2FA82F2032193
:10215800520001FA02F223EA020195FAA5F3B3FA52
:1021680083F35A00032393400B438360032F35D82E
:10217800DFE807F01D1D021D18F0080FC6F3062240
:1021880017D0406A2B0A93FAA3F1B1FA81F14FF004
:102198000F0C89000CFA01F120EA010193FAA3F36C
:1021A800B3FA83F39B0002FA03F30B4363623B46E3
:1021B80019E0036A95FAA5F1B1FA81F10F208900B7
:1021C80000FA01F123EA010195FAA5F3B3FA83F3C2
:1021D8009B0002FA03F30B432362E8E717487121D7
:1021E80000F092F80023216895FAA5F2B2FA82F27B
:1021F8000320520000FA02F221EA020195FAA5F240
:10220800B2FA82F252009340013F0B43012F236040
:1022180005D8636832074CBF2B43AB436360C6F3F2
:102228000112012A02D0022A18BF0022294620469C
:10223800BDE8F041FFF74ABF3C330008D732000839
:10224800431C06D17047834202D18968FFF762BFF9
:102258000C31B1F900305A1CF5D102489D2100F02B
:1022680053B800BFD7320008B1F900305A1C01D169
:1022780000207047834201D1486870470C31F3E76A
:10228800431C01D0FFF7F0BF002070474B6813B91B
:102298004FF0FF307047834202D1B1F90000704718
:1022A8000C31F3E708B1FFF7F1BF4FF0FF3070478B
:1022B800B1F900305A1C01D118467047834201D148
:1022C800886870470C31F3E7431C01D0FFF7F0BF73
:1022D8007047884204D018B100290CBF014600217C
:1022E80008467047034B1B6813B1034A1068184728
:1022F800704700BF74030020980300200148FFF7CF
:1023080043B800BF78030020FEE700001549D1F864
:10231800883043F47003C1F88830134B1A6842F0D0
:1023280001021A605868114A02405A601A6822F07D
:10233800847222F480321A601A6822F480221A60A9
:102348005A6822F4FE025A60DA6A22F00F02DA6250
:10235800186B074A02401A6300229A604FF0006324
:102368008B60704700ED00E0001002400CC07FF861
:10237800CCFC00FF0438704703682B4A934286B0B0
:1023880018D102F56442916941F400619161926942
:1023980002F400620092009A244A934236D1244BF8
:1023A8009A6942F480229A619B6903F48023059319
:1023B800059B2BE0B3F1804F13D01E4A93421BD0EC
:1023C8001D4A934224D01D4A9342E5D1184B9A697D
:1023D80042F400329A619B6903F400330493049B2E
:1023E80014E0134AD16941F00101D161D26902F0C8
:1023F80001020192019ACFE70D4BDA6942F010020F
:10240800DA61DB6903F010030293029B06B07047A0
:10241800074B9A6942F480329A619B6903F48033CE
:102428000393039BF2E700BF002C014000480140E2
:1024380000100240001000400040014000440140EC
:1024480003681A4A934208D119498A6922F400623A
:102458008A61184A934223D07047B3F1804F0DD058
:10246800154A934210D0154A934213D0144A934206
:10247800EFD10F4A936923F400330FE00C49CA697E
:1024880022F00102CA61E4E7094AD36923F0100384
:10249800D3617047064A936923F480339361704788
:1024A800034A936923F48023F8E700BF002C014016
:1024B8000010024000480140001000400040014068
:1024C8000044014008B5431C014611D0124B984204
:1024D8001AD010D8A3F59833984217D003F58E3345
:1024E800984217D0B0F1804F12D00C48FFF70CFF7C
:1024F8006FF00D0008BD0A4B98420BD003F58063BE
:102508009842F2D11A20F5E71820F3E73620F1E7D0
:102518001C20EFE71920EDE7004001409433000844
:102528000044014008B5431C014611D0134B9842A2
:102538001AD010D8A3F59833984217D003F58E33E4
:10254800984215D0B0F1804F14D00D48FFF7DCFE4B
:102558006FF00D0008BD0B4B98420DD003F580635A
:102568009842F2D11A20F5E71820F3E73620F1E770
:102578001B20EFE71C20EDE71920EBE700400140A6
:10258800943300080044014038B50446FFF7F4FED0
:102598000068FFF797FFD4E91012FEF7A1FA206848
:1025A800FFF790FFFEF7CEFA2068FFF7BBFF05465E
:1025B8002068FFF787FF85420DD02068FFF7B2FF3C
:1025C800D4E91012FEF78CFA2068FFF7ABFFBDE8DC
:1025D8003840FEF7B7BA38BD2DE9FF4704468946AB
:1025E800B0F98C004A49DDF830A090461F46FFF745
:1025F80047FE48490546B4F98E00FFF741FE0646F6
:10260800002D00F08180B4F98E30013301D000280C
:102618007AD031462846FFF75CFE2060002873D048
:102628003D4B98423AD103F55843DA6842F4804268
:10263800DA60DA6822F48042DA609A6942F4804209
:102648009A619B6903F480430193019B2523A4F8B5
:1026580090302F49B4F98C00FFF7F2FD26B12D49CF
:10266800B4F98E00FFF7ECFD94F891202B4B6761CD
:10267800201D43F8220023680C22C4E901390023F5
:10268800C4E9038AC4E90623C4E909332362002E96
:1026980035D104B0BDE8F047FFF778BB204B98422E
:1026A80015D103F5E6331A6942F400321A611A6942
:1026B80022F400321A61DA6942F40032DA61DB6925
:1026C80003F400330293029B4FF49373BFE7154B57
:1026D8009842BED1144D2B6943F480232B612B699A
:1026E80023F480232B61EB6943F48023EB61EB69CE
:1026F80003F480230393039B40F22723A7E704B046
:10270800BDE8F047FFF714BB04B0BDE8F08700BF91
:1027180054300008DC2F0008003801409C030020DA
:1027280000440040004800400010024008B1FFF794
:1027380053BF704708B5074B90F8912053F8220013
:10274800FFF768F900F02200A0F12203584258412F
:1027580008BD00BF9C03002008B5074B90F89120E6
:1027680053F82200FFF756F900F02100A0F12103E9
:102778005842584108BD00BF9C03002070B50E4662
:10278800054610B94FF0FF3070BDFFF7D3FF044680
:102798000028F7D12946012211F8923F337095F8A5
:1027A8009100034B53F82000FEF7A8FF2046EBE703
:1027B8009C03002070B50E460446F8B1FFF7BAFF37
:1027C8000546D8B994F99000C4F88460FEF7C8F9B2
:1027D80094F891000A4B04F1920153F82000012269
:1027E800FEF78CFF94F990002A460121FEF778F94C
:1027F80094F99000BDE87040FEF7A4B970BD00BF21
:102808009C03002010B50446F8B1C0F8881090F970
:102818009000FEF7A5F9D4F89830B4F8A21094F80F
:10282800910013FA81F1094B012253F82000FEF7B9
:1028380033FF94F9900000220121FEF751F994F931
:102848009000BDE81040FEF77DB910BD9C03002044
:1028580050B1B0F98E30013306D190F89120034B76
:1028680053F82200FFF7A6B8704700BF9C0300206A
:1028780050B1B0F98E30013306D190F89120034B56
:1028880053F82200FFF7AEB8704700BF9C03002042
:10289800D0F880300438184710B5D0F88430044692
:1028A8000438984701300BD0B4F89E10D4F894300F
:1028B80020460122BDE8104013FA81F1FEF7ECBE74
:1028C80010BD0368DA69D20710B504460DD5012298
:1028D8001A62201FFFF72EFFB0B904F18E012046BF
:1028E8000122BDE81040FEF709BFDA69900701D55B
:1028F8000222EDE7DA69510701D50422E8E7DA692F
:102908001207E6D50822E3E710BD000008B5252028
:10291800FEF750F9024B1868BDE80840FEF79CBF67
:102928009C03002008B52620FEF744F9024B58689E
:10293800BDE80840FEF790BF9C03002008B527209B
:10294800FEF738F9034B986818B1BDE80840FEF760
:1029580083BF08BD9C030020012200F18E01FEF711
:10296800CDBE000010B50A4C22681318EFF3088199
:102978008B4206D9074B0C221A604FF0FF321046E3
:1029880010BD05490548091A8B42F3D22360F6E7C2
:1029980020000020B40300200040002000040000B4
:1029A80038B5104D192415F8010B0021FDF768FF03
:1029B800013CF8D10C4D032415F8010B0121FDF75A
:1029C8005FFF013CF8D101211520FDF7BFFF012170
:1029D8001720FDF7BBFF21461620BDE83840FDF75C
:1029E800B5BF00BF123400083B3400082DE9F74F8B
:1029F8002D4BDFF8BC90DFF8BC802C4F0024254617
:102A08002646A346A24613F8010BCDE90033FDF78D
:102A1800CBFFA04040EA0A0A19F8010BFDF7C4FFF2
:102A2800A04040EA0B0B18F8010BFDF7BDFFA040D2
:102A3800064317F8010BFDF7B7FFA0400134054323
:102A4800042C009B5FFA8AFA5FFA8BFBF6B2EDB2B0
:102A5800D9D1BAF10A0F1AD8BBF10A0F1AD80A2E1F
:102A68001BD80A2D1CD80A2010FB0BAA64204FF48F
:102A78007A7310FB06A003FB05053020FDF794FFD1
:102A880042F2107303FB005003B0BDE8F08F4FF023
:102A9800FF30F9E76FF00100F6E76FF00200F3E7A7
:102AA8006FF00300F0E700BF2B340008373400084C
:102AB8002F3400083334000838B50320FDF774FFBD
:102AC80005460520FDF770FF04460420FDF76CFF5E
:102AD800820042EA440343EA050044B20A20FDF7B3
:102AE80063FF44EAC000024BC0B2185C38BD00BFA7
:102AF8002C00002010B50E20FDF756FF04460F20CD
:102B0800FDF752FF44EA4000014BC0B2185C10BD0B
:102B18002800002010B50720FDF746FF04460820CE
:102B2800FDF742FF44EA4000014BC0B2185C10BDFB
:102B38002400002070B5FFF759FF0446FFF7BCFFDB
:102B48000546FFF7D7FF0646FFF7E4FF002C13DA28
:102B5800621C08D125492648FDF7C9FDBDE870402B
:102B68001420FDF753BFA31C01D12249F3E7033416
:102B78000CBF21492149EEE7062D01D12049EAE79A
:102B8800022E01D11F49E6E7022801D11E49E2E7DA
:102B98001E4B1F499A5D1F4B8A701B5C1E48CB70E9
:102BA800405D48700A2394FBF3F2B2FBF3F003FB99
:102BB800124403FB10223032CA71B0FBF3F203FB5C
:102BC800120030308871B2FBF3F003FB1022303270
:102BD8004A71B0FBF3F203FB12033034303304487C
:102BE8000C720B71FDF795FDB8E700BFE2330008E2
:102BF800C8000020EE330008FA3300080634000845
:102C0800D6330008CA330008BE3300084134000830
:102C18003C0000203E3400084434000810B5FFF79B
:102C2800BFFE1248114C06224FF4E131FDF7DCFBE0
:102C38000F490E48FDF77AFD2046FDF7FEFA20B150
:102C48002046FDF723FC0028F6D1084C2046FDF766
:102C5800F4FA0028FAD0054C2046FDF7EEFA20B128
:102C68002046FDF713FC0028F6D110BDC80000204F
:102C7800AC33000870B50D4D0D4C641BA410002634
:102C8800A64209D10B4D0C4C00F0F0F8641BA410BF
:102C98000026A64205D170BD55F8043B9847013679
:102CA800EEE755F8043B98470136F2E7AC340008E4
:102CB800AC340008AC340008BC340008024B0146B0
:102CC800186800F05BB800BF48000020024B0146BE
:102CD800186800F003B800BF4800002037B5002985
:102CE80048D051F8043C0190002BA1F10404B8BF6E
:102CF800E41800F0AFF8204A01981368154633B974
:102D08006360146003B0BDE8304000F0A9B8A34286
:102D18000BD921686218934204BF1A685B68636024
:102D280004BF521822602C60ECE71A465B680BB1AE
:102D3800A342FAD911685518A5420BD12468214439
:102D48005418A3421160DDD11C685B6853602144AC
:102D58001160D7E702D90C230360D3E7256861190E
:102D68008B4204BF19685B68636004BF491921601E
:102D78005460C7E703B030BDA8030020F8B5CD1CE8
:102D880025F0030508350C2D38BF0C25002D064607
:102D980001DBA94203D90C2333600020F8BD00F001
:102DA80059F821490A6814469CB9204F3B6823B951
:102DB8002146304600F03CF838602946304600F09D
:102DC80037F8431C23D10C233360304600F048F811
:102DD800E3E723685B1B17D40B2B03D923601C4440
:102DE800256004E06368A2420CBF0B605360304664
:102DF80000F036F804F10B00231D20F00700C21A7A
:102E0800CCD01B1AA350C9E722466468CCE7C41C7F
:102E180024F00304A042E3D0211A304600F008F859
:102E28000130DDD1CFE700BFA8030020AC030020AC
:102E380038B5064D0023044608462B60FFF792FD7F
:102E4800431C02D12B6803B1236038BDB4030020B2
:102E5800704770470148FFF7FBBF00BFBC03002065
:102E68000148FFF7F6BF00BFBC030020F8B500BF5C
:102E7800F8BC08BC9E467047F8B500BFF8BC08BC53
:042E88009E467047AB
:102E8C00040000000074004003800000FFFF0000FD
:102E9C0000000000000000000100000000400140A4
:102EAC00128910000600000000440140128100004D
:102EBC0007000000004801401281000008000000DB
:102ECC00002C01401286000009000000002C01407B
:102EDC00120601000A000000002C014012860100BD
:102EEC000B000000002C0140120B02000C00000033
:102EFC0000440140128100000D000000004401401C
:102F0C001281100010000000002C0140120611006C
:102F1C0011000000002C014012861100140000006A
:102F2C0000440140128100001500000000480140DF
:102F3C00128A0000160000000044014012811000AB
:102F4C00170000000048014012811000180000001A
:102F5C0000440140128100001900000000480140AB
:102F6C00128100001E000000004001401281000090
:102F7C001F00000000400140120101002000000071
:102F8C00002C01401282000021000000002C0140A6
:102F9C001202010022000000002C014012820100EC
:102FAC0023000000002C0140120202002D00000042
:102FBC00002C01401284100040000000002C014045
:102FCC0012861100FFFF000000000000000000004E
:102FDC000300000000440040120700000A0000003B
:102FEC0000380140120700000F00000000440040B0
:102FFC0012070000140000000044004012070000FB
:10300C0017000000003801401207000018000000F3
:10301C0000480040120700001B0000000048004060
:10302C0012070000250000000038014012070000C4
:10303C002B0000000048004012070000FFFF0000BA
:10304C0000000000000000000200000000440040EE
:10305C0012070000090000000038014012070000B0
:10306C000E00000000440040120700001300000096
:10307C000044004012070000160000000038014018
:10308C001207000019000000004800401207000061
:10309C001A00000000480040120700002400000045
:1030AC0000380140120700002A00000000480040D0
:1030BC0012070000FFFF00000000000000000000ED
:1030CC002E0000002F000000300000003100000036
:1030DC0032000000330000001C0000001D00000046
:1030EC0027000000290000002A0000002B0000002F
:1030FC00030002000A001300150014001A00080057
:10310C000900270016001F001E001D0019001800E2
:10311C002A002C004B000D000E000F0017002D0094
:10312C002E002F0040004100220023002B00320013
:10313C0029002800260025000C000B001C001B0099
:10314C001200110007000600050024000000010019
:10315C0004001000210020002F686F6D652F6D6139
:10316C006E69656B2F2E706C6174666F726D696F12
:10317C002F7061636B616765732F6672616D657724
:10318C006F726B2D61726475696E6F737473746D8D
:10319C0033322F636F7265732F61726475696E6F52
:1031AC002F486172647761726553657269616C2E28
:1031BC00637070000600070008000000000000109B
:1031CC0000000000001000000000000000000000E3
:1031DC00A9020008D506000843020008950400085F
:1031EC00530200080903000873070008950700083C
:1031FC002F686F6D652F6D616E69656B2F2E706C0E
:10320C006174666F726D696F2F7061636B61676556
:10321C00732F6672616D65776F726B2D6172647559
:10322C00696E6F737473746D33322F636F72657361
:10323C002F61726475696E6F2F4861726477617269
:10324C006554696D65722E637070000D0A002F68ED
:10325C006F6D652F6D616E69656B2F2E706C61746F
:10326C00666F726D696F2F7061636B616765732F29
:10327C006672616D65776F726B2D61726475696EC4
:10328C006F737473746D33322F636F7265732F6148
:10329C00726475696E6F2F776972696E675F6469A6
:1032AC00676974616C2E6300020304050607080944
:1032BC000A0B0C0D0E0F1010010203040506070873
:1032CC00090A0B0C0D0E0F100408022F686F6D65A8
:1032DC002F6D616E69656B2F2E706C6174666F72E9
:1032EC006D696F2F7061636B616765732F667261B7
:1032FC006D65776F726B2D61726475696E6F737427
:10330C0073746D33322F6C69627261726965732FDD
:10331C00537263577261707065722F7372632F737F
:10332C00746D33322F70696E6D61702E6300000006
:10333C000100000002000000040000000800000072
:10334C001000000020000000400000008000000081
:10335C000001000000020000000400000008000052
:10336C000010000000200000004000000080000061
:10337C000000000000000000010203040607080919
:10338C00000000000102030454494D3A20556E6BB5
:10339C006E6F776E2074696D6572204952516E00A4
:1033AC0057616974696E6720666F722073746172FD
:1033BC007400244D415030303030300D0A00244C14
:1033CC00415030303030300D0A00244B41503030F9
:1033DC003030300D0A002447415030303030300D41
:1033EC000A002448415030303030300D0A00244956
:1033FC00415030303030300D0A00244A41503030CA
:10340C003030300D0A0033323B3C2E2F022D201071
:10341C001E11260D0C0B3007080F0E0A0305043382
:10342C00323B3C2E2F022D20101E11260D0C0B159D
:10343C001617504D5A41445A41424344454F5A0085
:10344C000000000000000000000000000000000070
:10345C000000000000000000000000000000000060
:10346C000000000000000000000000000000000050
:10347C000000000000000000000000000000000040
:10348C000000000000000000000000000000000030
:10349C000000000000000000000000000000000020
:1034AC00FD070008BD010008C50400083120000814
:0834BC0099010008B920000885
:1034C4000100000010000000000000480004004853
:1034D40000080048000C00480014004800127A005C
:1034E400C8030020000001020000010205050505D3
:1034F400050505050301040200060606245254537B
:1035040001010101010D0A004C000020000000002F
:103514006C3400088C3400084C34000800000000AF
:103524000000000000000000000000000000000097
:103534000000000000000000000000000000000087
:103544000000000000000000000000000000000077
:103554000000000000000000000000000000000067
:0C3564000000000000000000000000005B
:0400000508000835B2
:00000001FF
